{
  "contractName": "DICCertification",
  "abi": [
    {
      "inputs": [],
      "payable": false,
      "stateMutability": "nonpayable",
      "type": "constructor",
      "signature": "constructor"
    },
    {
      "anonymous": false,
      "inputs": [
        {
          "indexed": false,
          "name": "personNumber",
          "type": "uint256"
        },
        {
          "indexed": false,
          "name": "courseName",
          "type": "uint256"
        }
      ],
      "name": "courseAdded",
      "type": "event",
      "signature": "0x6f2f86527f7b88a4ff7c21a587f2bcab98aea47835d74229a453edca14f82ce0"
    },
    {
      "anonymous": false,
      "inputs": [
        {
          "indexed": false,
          "name": "personNumber",
          "type": "uint256"
        }
      ],
      "name": "preRequisiteSatisified",
      "type": "event",
      "signature": "0x8f868b2d112e8f0481ea99321bbaf49a26b47c6caca49ff412afb3f1107afafa"
    },
    {
      "anonymous": false,
      "inputs": [
        {
          "indexed": false,
          "name": "personNumber",
          "type": "uint256"
        },
        {
          "indexed": false,
          "name": "programCode",
          "type": "uint256"
        }
      ],
      "name": "preRequisiteNotSatisified",
      "type": "event",
      "signature": "0xe6b0c83a7ef8fc8aec115130c22fa99fcb86ee64231484420889fbb625eadd31"
    },
    {
      "anonymous": false,
      "inputs": [
        {
          "indexed": false,
          "name": "personNumber",
          "type": "uint256"
        }
      ],
      "name": "requiredCoursesSatisfied",
      "type": "event",
      "signature": "0xea7f2142ee5c0e41e17bdf3441eb76fd3abdd2e84e590947e9dd2148c8ee948d"
    },
    {
      "anonymous": false,
      "inputs": [
        {
          "indexed": false,
          "name": "personNumber",
          "type": "uint256"
        },
        {
          "indexed": false,
          "name": "programCode",
          "type": "uint256"
        }
      ],
      "name": "requiredCoursesNotSatisfied",
      "type": "event",
      "signature": "0x1673f9e1ee993b7c36daed30154458ff8821ff879aa49dd1a9be52a8c0973e17"
    },
    {
      "anonymous": false,
      "inputs": [
        {
          "indexed": false,
          "name": "personNumber",
          "type": "uint256"
        }
      ],
      "name": "GPARequirementSatisfied",
      "type": "event",
      "signature": "0x7e5b531b29c86141c15e493ec4a1a05f5a7926e21be9cc0f509f3ddeac4061c6"
    },
    {
      "anonymous": false,
      "inputs": [
        {
          "indexed": false,
          "name": "personNumber",
          "type": "uint256"
        }
      ],
      "name": "GPARequirementNotSatisfied",
      "type": "event",
      "signature": "0x07430aa40231bab3d0b146df30c124025d557a15726b39a50a808a7b9ad6f222"
    },
    {
      "anonymous": false,
      "inputs": [
        {
          "indexed": false,
          "name": "personNumber",
          "type": "uint256"
        }
      ],
      "name": "projectRequirementSatisfied",
      "type": "event",
      "signature": "0xcb08a556b5209d75c5ed7eff8e150135d600adfb63daabf6ac02e26c592906dd"
    },
    {
      "anonymous": false,
      "inputs": [
        {
          "indexed": false,
          "name": "personNumber",
          "type": "uint256"
        }
      ],
      "name": "projectRequirementNotSatisfied",
      "type": "event",
      "signature": "0x3688ecb368437e999e29f9985a5848137b368f333c2df7aeddf919385183d6b0"
    },
    {
      "anonymous": false,
      "inputs": [
        {
          "indexed": false,
          "name": "personNumber",
          "type": "uint256"
        }
      ],
      "name": "domainRequirementSatisfied",
      "type": "event",
      "signature": "0x0f81fd0827e1cf33ba9950a6262834cb8ed66d62c63c48bb2e09bfa8519335e9"
    },
    {
      "anonymous": false,
      "inputs": [
        {
          "indexed": false,
          "name": "personNumber",
          "type": "uint256"
        }
      ],
      "name": "domainRequirementNotSatisfied",
      "type": "event",
      "signature": "0x7e82b730329609612a6a3cc4cf1c5f89f72fa87f855d56e159658c5f689d8be7"
    },
    {
      "constant": false,
      "inputs": [
        {
          "name": "personNumber",
          "type": "uint256"
        },
        {
          "name": "programCode",
          "type": "uint256"
        },
        {
          "name": "courseGPA",
          "type": "uint256"
        }
      ],
      "name": "addCSCourse",
      "outputs": [],
      "payable": false,
      "stateMutability": "nonpayable",
      "type": "function",
      "signature": "0x01049dd5"
    },
    {
      "constant": false,
      "inputs": [
        {
          "name": "personNumber",
          "type": "uint256"
        },
        {
          "name": "programCode",
          "type": "uint256"
        },
        {
          "name": "courseGPA",
          "type": "uint256"
        }
      ],
      "name": "addNonCSCourse",
      "outputs": [],
      "payable": false,
      "stateMutability": "nonpayable",
      "type": "function",
      "signature": "0x8109fcc7"
    },
    {
      "constant": false,
      "inputs": [
        {
          "name": "personNumber",
          "type": "uint256"
        }
      ],
      "name": "verifyCapstoneProject",
      "outputs": [],
      "payable": false,
      "stateMutability": "nonpayable",
      "type": "function",
      "signature": "0x74cf6603"
    },
    {
      "constant": false,
      "inputs": [
        {
          "name": "personNumber",
          "type": "uint256"
        }
      ],
      "name": "verifyDomainRequirement",
      "outputs": [],
      "payable": false,
      "stateMutability": "nonpayable",
      "type": "function",
      "signature": "0x972a987d"
    },
    {
      "constant": false,
      "inputs": [
        {
          "name": "personNumber",
          "type": "uint256"
        }
      ],
      "name": "checkEligibility",
      "outputs": [
        {
          "name": "",
          "type": "bool"
        }
      ],
      "payable": false,
      "stateMutability": "nonpayable",
      "type": "function",
      "signature": "0x7b39fed6"
    }
  ],
  "bytecode": "0x608060405260408051908101604052806111c061ffff1681526020016111c161ffff1681525060009060026200003792919062000180565b506060604051908101604052806111cb61ffff16815260200161456a61ffff16815260200161130b61ffff16815250600190600362000078929190620001d8565b506101606040519081016040528062049bbc62ffffff16815260200161454062ffffff1681526020016204944862ffffff1681526020016101c862ffffff16815260200162049b9a62ffffff16815260200161130662ffffff16815260200161456462ffffff16815260200161456562ffffff1681526020016204986662ffffff16815260200162049bbb62ffffff16815260200161456862ffffff16815250600290600b6200012a92919062000230565b503480156200013857600080fd5b5033600360006101000a81548173ffffffffffffffffffffffffffffffffffffffff021916908373ffffffffffffffffffffffffffffffffffffffff160217905550620002b1565b828054828255906000526020600020908101928215620001c5579160200282015b82811115620001c4578251829061ffff16905591602001919060010190620001a1565b5b509050620001d4919062000289565b5090565b8280548282559060005260206000209081019282156200021d579160200282015b828111156200021c578251829061ffff16905591602001919060010190620001f9565b5b5090506200022c919062000289565b5090565b82805482825590600052602060002090810192821562000276579160200282015b8281111562000275578251829062ffffff1690559160200191906001019062000251565b5b50905062000285919062000289565b5090565b620002ae91905b80821115620002aa57600081600090555060010162000290565b5090565b90565b61109080620002c16000396000f3fe60806040526004361061006d576000357c0100000000000000000000000000000000000000000000000000000000900463ffffffff16806301049dd51461007257806374cf6603146100c15780637b39fed6146100fc5780638109fcc71461014f578063972a987d1461019e575b600080fd5b34801561007e57600080fd5b506100bf6004803603606081101561009557600080fd5b810190808035906020019092919080359060200190929190803590602001909291905050506101d9565b005b3480156100cd57600080fd5b506100fa600480360360208110156100e457600080fd5b8101908080359060200190929190505050610443565b005b34801561010857600080fd5b506101356004803603602081101561011f57600080fd5b81019080803590602001909291905050506105b1565b604051808215151515815260200191505060405180910390f35b34801561015b57600080fd5b5061019c6004803603606081101561017257600080fd5b8101908080359060200190929190803590602001909291908035906020019092919050505061069f565b005b3480156101aa57600080fd5b506101d7600480360360208110156101c157600080fd5b81019080803590602001909291905050506108f5565b005b82600081111515610252576040517f08c379a00000000000000000000000000000000000000000000000000000000081526004018080602001828103825260198152602001807f506572736f6e206e756d6265722063616e6e6f7420626520300000000000000081525060200191505060405180910390fd5b82600181101580156102675750620f423f8111155b15156102db576040517f08c379a000000000000000000000000000000000000000000000000000000000815260040180806020018281038252601f8152602001807f50726f6772616d20636f64652073686f756c6420626520312d3939393939390081525060200191505060405180910390fd5b82610190811115151561037c576040517f08c379a000000000000000000000000000000000000000000000000000000000815260040180806020018281038252602f8152602001807f4750412073686f756c642062652030202d20343030202845783a20436f6e766581526020017f727420332e393820746f2033393829000000000000000000000000000000000081525060400191505060405180910390fd5b8360046000888152602001908152602001600020600087815260200190815260200160002060000181905550600160046000888152602001908152602001600020600087815260200190815260200160002060010160006101000a81548160ff0219169083151502179055507f6f2f86527f7b88a4ff7c21a587f2bcab98aea47835d74229a453edca14f82ce08686604051808381526020018281526020019250505060405180910390a16104318686610a63565b61043b8686610aaa565b505050505050565b3373ffffffffffffffffffffffffffffffffffffffff16600360009054906101000a900473ffffffffffffffffffffffffffffffffffffffff1673ffffffffffffffffffffffffffffffffffffffff16141515610508576040517f08c379a00000000000000000000000000000000000000000000000000000000081526004018080602001828103825260148152602001807f55736572206e6f7420617574686f72697a65642e00000000000000000000000081525060200191505060405180910390fd5b80600081111515610581576040517f08c379a00000000000000000000000000000000000000000000000000000000081526004018080602001828103825260198152602001807f506572736f6e206e756d6265722063616e6e6f7420626520300000000000000081525060200191505060405180910390fd5b60016006600084815260200190815260200160002060006101000a81548160ff0219169083151502179055505050565b60008160008111151561062c576040517f08c379a00000000000000000000000000000000000000000000000000000000081526004018080602001828103825260198152602001807f506572736f6e206e756d6265722063616e6e6f7420626520300000000000000081525060200191505060405180910390fd5b600061063784610b1d565b9050600061064485610c3c565b9050600061065186610d5c565b9050600061065e87610edc565b9050600061066b88610fa0565b90508480156106775750835b80156106805750825b80156106895750815b80156106925750805b9650505050505050919050565b82600081111515610718576040517f08c379a00000000000000000000000000000000000000000000000000000000081526004018080602001828103825260198152602001807f506572736f6e206e756d6265722063616e6e6f7420626520300000000000000081525060200191505060405180910390fd5b826001811015801561072d5750620f423f8111155b15156107a1576040517f08c379a000000000000000000000000000000000000000000000000000000000815260040180806020018281038252601f8152602001807f50726f6772616d20636f64652073686f756c6420626520312d3939393939390081525060200191505060405180910390fd5b826101908111151515610842576040517f08c379a000000000000000000000000000000000000000000000000000000000815260040180806020018281038252602f8152602001807f4750412073686f756c642062652030202d20343030202845783a20436f6e766581526020017f727420332e393820746f2033393829000000000000000000000000000000000081525060400191505060405180910390fd5b8360056000888152602001908152602001600020600087815260200190815260200160002060000181905550600160056000888152602001908152602001600020600087815260200190815260200160002060010160006101000a81548160ff0219169083151502179055507f6f2f86527f7b88a4ff7c21a587f2bcab98aea47835d74229a453edca14f82ce08686604051808381526020018281526020019250505060405180910390a1505050505050565b3373ffffffffffffffffffffffffffffffffffffffff16600360009054906101000a900473ffffffffffffffffffffffffffffffffffffffff1673ffffffffffffffffffffffffffffffffffffffff161415156109ba576040517f08c379a00000000000000000000000000000000000000000000000000000000081526004018080602001828103825260148152602001807f55736572206e6f7420617574686f72697a65642e00000000000000000000000081525060200191505060405180910390fd5b80600081111515610a33576040517f08c379a00000000000000000000000000000000000000000000000000000000081526004018080602001828103825260198152602001807f506572736f6e206e756d6265722063616e6e6f7420626520300000000000000081525060200191505060405180910390fd5b60016007600084815260200190815260200160002060006101000a81548160ff0219169083151502179055505050565b6101f2811480610a7457506101f381145b15610aa65760016006600084815260200190815260200160002060006101000a81548160ff0219169083151502179055505b5050565b60008090505b600280549050811015610b185781600282815481101515610acd57fe5b90600052602060002001541415610b0b5760016007600085815260200190815260200160002060006101000a81548160ff0219169083151502179055505b8080600101915050610ab0565b505050565b6000806001905060008090505b600080549050811015610bf4576004600085815260200190815260200160002060008083815481101515610b5a57fe5b9060005260206000200154815260200190815260200160002060010160009054906101000a900460ff161515610be757600091507fe6b0c83a7ef8fc8aec115130c22fa99fcb86ee64231484420889fbb625eadd3184600083815481101515610bbf57fe5b9060005260206000200154604051808381526020018281526020019250505060405180910390a15b8080600101915050610b2a565b508015610c33577f8f868b2d112e8f0481ea99321bbaf49a26b47c6caca49ff412afb3f1107afafa836040518082815260200191505060405180910390a15b80915050919050565b6000806001905060008090505b600180549050811015610d1457600460008581526020019081526020016000206000600183815481101515610c7a57fe5b9060005260206000200154815260200190815260200160002060010160009054906101000a900460ff161515610d0757600091507f1673f9e1ee993b7c36daed30154458ff8821ff879aa49dd1a9be52a8c0973e1784600183815481101515610cdf57fe5b9060005260206000200154604051808381526020018281526020019250505060405180910390a15b8080600101915050610c49565b508015610d53577fea7f2142ee5c0e41e17bdf3441eb76fd3abdd2e84e590947e9dd2148c8ee948d836040518082815260200191505060405180910390a15b80915050919050565b600080600090506000600180549050600080549050019050600080905060008090505b600080549050811015610ddd576004600087815260200190815260200160002060008083815481101515610daf57fe5b9060005260206000200154815260200190815260200160002060000154840193508080600101915050610d7f565b5060008090505b600180549050811015610e4357600460008781526020019081526020016000206000600183815481101515610e1557fe5b9060005260206000200154815260200190815260200160002060000154840193508080600101915050610de4565b5060fa8284811515610e5157fe5b04101515610e9957600190507f7e5b531b29c86141c15e493ec4a1a05f5a7926e21be9cc0f509f3ddeac4061c6856040518082815260200191505060405180910390a1610ed1565b7f07430aa40231bab3d0b146df30c124025d557a15726b39a50a808a7b9ad6f222856040518082815260200191505060405180910390a15b809350505050919050565b60006006600083815260200190815260200160002060009054906101000a900460ff1615610f40577fcb08a556b5209d75c5ed7eff8e150135d600adfb63daabf6ac02e26c592906dd826040518082815260200191505060405180910390a1610f78565b7f3688ecb368437e999e29f9985a5848137b368f333c2df7aeddf919385183d6b0826040518082815260200191505060405180910390a15b6006600083815260200190815260200160002060009054906101000a900460ff169050919050565b60006007600083815260200190815260200160002060009054906101000a900460ff1615611004577f0f81fd0827e1cf33ba9950a6262834cb8ed66d62c63c48bb2e09bfa8519335e9826040518082815260200191505060405180910390a161103c565b7f7e82b730329609612a6a3cc4cf1c5f89f72fa87f855d56e159658c5f689d8be7826040518082815260200191505060405180910390a15b6007600083815260200190815260200160002060009054906101000a900460ff16905091905056fea165627a7a72305820e7f99e506073c5bae1ea09231887a3f9f7c406f1e9b0c4eb3b33912e8f0d579a0029",
  "source": "pragma solidity >=0.4.22 <0.6.0;\n\n// Requirements for the Data Intensive Computing Certification\n// Reference: https://catalog.buffalo.edu/academicprograms/data-intensive_computing_cert_requirements.html\n    \n// Prerequisites:\n// 1. CSE 115 - Intro to CS 1 : 4544\n// 2. CSE 116 - Intro to CS 2 : 4545\n    \n// Required Courses:\n// 1. CSE 250 - Data Structures and algorithms : 4555\n// 2. CSE 486 - Distributed Systems : 17770\n// 3. CSE 487 - Data Intensive Computing : 4875\n\n// Domain Requirement:\n// 4. Any 300 or 400 level course with data intensive content in the major area of the student\n// Has a list of sufficient courses. If not available, can be verified by admin.\n    \n// Required Projects:\n// Capstone project in the major area of the student\n// CSE 498 or CSE 499 is sufficient. If not available, can be verified by admin\n\n// GPA: greater than 2.5 in the required and elective courses above\n\ncontract DICCertification {\n    \n    struct Course {\n        uint gpa;\n        bool exists;\n    }\n\n    uint constant private MINIMUM_GPA_REQUIRED = 250;\n    uint[] private PRE_REQUISITE_COURSES = [4544, 4545];\n    uint[] private REQUIRED_COURSES = [4555, 17770, 4875];\n    uint[] private CSE_DOMAIN_COURSES = [302012, 17728, 300104, 456, 301978, 4870, 17764, 17765, 301158, 302011, 17768];\n\n    address private admin;\n    \n    // Person Number -> Program Code -> {GPA, exists} mapping\n    mapping(uint => mapping(uint => Course)) private computerScienceCourses;\n    mapping(uint => mapping(uint => Course)) private otherDepartmentCourses;\n    \n    // Person Number -> Boolean mapping\n    mapping(uint => bool) private capstoneProjectVerified;\n    mapping(uint => bool) private domainRequirementVerified;\n    \n    // Modifiers \n    modifier onlyAdmin() {\n        require(\n            admin == msg.sender,\n            \"User not authorized.\"\n        );\n        _;\n    }\n    \n    modifier validGPA(uint GPA) {\n        require(\n            GPA <= 400,\n            \"GPA should be 0 - 400 (Ex: Convert 3.98 to 398)\"\n        );\n        _;\n    }\n    \n    modifier validPersonNumber(uint personNumber) {\n        require(\n            personNumber > 0,\n            \"Person number cannot be 0\"\n        );\n        _;\n    }\n    \n    modifier validProgramCode(uint programCode) {\n        require(\n            programCode >= 1 && programCode <= 999999,\n            \"Program code should be 1-999999\"\n        );\n        _;\n    }\n    \n    // Events\n    event courseAdded(uint personNumber, uint courseName);\n    \n    event preRequisiteSatisified(uint personNumber);\n    event preRequisiteNotSatisified(uint personNumber, uint programCode);\n    \n    event requiredCoursesSatisfied(uint personNumber);\n    event requiredCoursesNotSatisfied(uint personNumber, uint programCode);\n    \n    event GPARequirementSatisfied(uint personNumber);\n    event GPARequirementNotSatisfied(uint personNumber);\n    \n    event projectRequirementSatisfied(uint personNumber);\n    event projectRequirementNotSatisfied(uint personNumber);\n    \n    event domainRequirementSatisfied(uint personNumber);\n    event domainRequirementNotSatisfied(uint personNumber);\n    \n    constructor() public {\n        admin = msg.sender;\n    }\n    \n    function addCSCourse(uint personNumber, uint programCode, uint courseGPA) public \n            validPersonNumber(personNumber) validProgramCode(programCode) validGPA(courseGPA) {\n        computerScienceCourses[personNumber][programCode].gpa = courseGPA;\n        computerScienceCourses[personNumber][programCode].exists = true;\n        emit courseAdded(personNumber, programCode);\n        \n        // Verify if course satisfies project requirement\n        verifyCourseForProjectRequirement(personNumber, programCode);\n        \n        // Verify if course satisfies domain requirement\n        verifyCourseForDomainRequirement(personNumber, programCode);\n    }\n    \n    function addNonCSCourse(uint personNumber, uint programCode, uint courseGPA) public \n            validPersonNumber(personNumber) validProgramCode(programCode) validGPA(courseGPA) {\n        otherDepartmentCourses[personNumber][programCode].gpa = courseGPA;\n        otherDepartmentCourses[personNumber][programCode].exists = true;\n        emit courseAdded(personNumber, programCode);\n    }\n    \n    function verifyCapstoneProject(uint personNumber) public onlyAdmin() validPersonNumber(personNumber) {\n        capstoneProjectVerified[personNumber] = true;\n    }\n    \n    function verifyDomainRequirement(uint personNumber) public onlyAdmin() validPersonNumber(personNumber) {\n        domainRequirementVerified[personNumber] = true;\n    }\n    \n    function checkEligibility(uint personNumber) public validPersonNumber(personNumber) returns(bool) {\n        bool preRequisiteDone = checkPreRequisites(personNumber);\n        bool requiredDone = checkRequiredCourses(personNumber);\n        bool GPASatisfied = checkGPARequirement(personNumber);\n        bool projectSatisfied = checkCapstoneProjectRequirement(personNumber);\n        bool domainSatisfied = checkDomainRequirement(personNumber);\n        \n        return preRequisiteDone && requiredDone && GPASatisfied && projectSatisfied && domainSatisfied;\n    }\n    \n    // Private functions\n    \n    function checkPreRequisites(uint personNumber) private returns(bool) {\n        bool requirementSatisfied = true;\n        \n        for (uint i=0; i<PRE_REQUISITE_COURSES.length; i++) {\n            if(!computerScienceCourses[personNumber][PRE_REQUISITE_COURSES[i]].exists) {\n                requirementSatisfied = false;\n                emit preRequisiteNotSatisified(personNumber, PRE_REQUISITE_COURSES[i]);\n            }\n        }\n        \n        if(requirementSatisfied) {\n            emit preRequisiteSatisified(personNumber);\n        }\n        \n        return requirementSatisfied;\n    }\n    \n    function checkRequiredCourses(uint personNumber) private returns(bool) {\n        bool requirementSatisfied = true;\n        \n        for (uint i=0; i<REQUIRED_COURSES.length; i++) {\n            if(!computerScienceCourses[personNumber][REQUIRED_COURSES[i]].exists) {\n                requirementSatisfied = false;\n                emit requiredCoursesNotSatisfied(personNumber, REQUIRED_COURSES[i]);\n            }\n        }\n        \n        if(requirementSatisfied) {\n            emit requiredCoursesSatisfied(personNumber);\n        }\n        \n        return requirementSatisfied;\n    }\n    \n    function checkGPARequirement(uint personNumber) private returns(bool) {\n        uint sum = 0;\n        uint totalCourses = PRE_REQUISITE_COURSES.length + REQUIRED_COURSES.length;\n        bool result = false;\n        \n        for (uint i=0; i<PRE_REQUISITE_COURSES.length; i++) {\n          sum += computerScienceCourses[personNumber][PRE_REQUISITE_COURSES[i]].gpa;\n        }\n        \n        for (uint i=0; i<REQUIRED_COURSES.length; i++) {\n          sum += computerScienceCourses[personNumber][REQUIRED_COURSES[i]].gpa;\n        }\n        \n        if((sum / totalCourses) >= MINIMUM_GPA_REQUIRED) {\n            result = true;\n            emit GPARequirementSatisfied(personNumber);\n        } else {\n            emit GPARequirementNotSatisfied(personNumber);\n        }\n        \n        return result;\n    }\n    \n    function checkCapstoneProjectRequirement(uint personNumber) private returns(bool) {\n        if(capstoneProjectVerified[personNumber]) {\n            emit projectRequirementSatisfied(personNumber);\n        } else {\n            emit projectRequirementNotSatisfied(personNumber);\n        }\n        return capstoneProjectVerified[personNumber];\n    }\n    \n    function checkDomainRequirement(uint personNumber) private returns(bool) {\n        if(domainRequirementVerified[personNumber]) {\n            emit domainRequirementSatisfied(personNumber);\n        } else {\n            emit domainRequirementNotSatisfied(personNumber);\n        }\n        return domainRequirementVerified[personNumber];\n    }\n    \n    function verifyCourseForProjectRequirement(uint personNumber, uint programCode) private {\n        if(programCode == 498 || programCode == 499) {\n            capstoneProjectVerified[personNumber] = true;\n        }\n    }\n    \n    function verifyCourseForDomainRequirement(uint personNumber, uint programCode) private {\n        for (uint i=0; i<CSE_DOMAIN_COURSES.length; i++) {\n          if(CSE_DOMAIN_COURSES[i] == programCode) {\n              domainRequirementVerified[personNumber] = true;\n          }\n        }\n    }\n    \n}",
  "sourcePath": "/Users/vikramkarthikeyan/Documents/Bina/certification/blockchain-course-certifier/course-certifier-contract/contracts/DICCertification.sol",
  "compiler": {
    "name": "solc",
    "version": "0.5.0+commit.1d4f565a.Emscripten.clang"
  },
  "schemaVersion": "3.0.1",
  "updatedAt": "2019-12-02T20:02:36.707Z",
  "devdoc": {
    "methods": {}
  },
  "userdoc": {
    "methods": {}
  }
}